:100000000C942A000C948D010C94B9010C944700B7
:100010000C9447000C9447000C9447000C94470044
:100020000C9447000C9447000C9434010C94470046
:100030000C9447000C9447000C9447000C94470024
:100040000C9447000C9447000C9447000C94470014
:100050000C94470011241FBECFE5D8E0DEBFCDBF12
:1000600010E0A0E6B0E0ECEEF3E002C005900D92E7
:10007000AC36B107D9F710E0ACE6B0E001C01D9294
:10008000AA37B107E1F70E9428010C94F4010C94FF
:1000900000008FEF84BB8AB3806F8ABB15BA8BB325
:1000A0008F708BBB0895BF92CF92DF92EF92FF9239
:1000B0000F931F93CF93DF937C0180916C00682F87
:1000C00070E080916D00482F50E080916E00C82F45
:1000D000D0E080916F00A82FB0E020E030E0605ABF
:1000E0007F4FE0E1BE2E08EC10E0405A5F4F90E2F7
:1000F000C92EC05ADF4F80E4D82EA05ABF4F90E8D7
:1001000022C0FB018081806885BBBBBAF8013197B2
:10011000F1F7DC98FA01808185BBCBBAF801319701
:10012000F1F7DD988881806885BBDBBAF8013197EB
:10013000F1F7DE988C9185BB9BBBF8013197F1F705
:10014000DF982F5F3F4F2E153F05D8F2DF91CF91FB
:100150001F910F91FF90EF90DF90CF90BF90089587
:1001600080917200909173000A9720F5809172003F
:100170009091730080936C00809170009091710059
:100180006AE070E00E94E00160936D008091700071
:10019000909171006AE070E00E94E00180936E002F
:1001A000809176009091770064E670E00E94E00113
:1001B00060936F0080917200909173000A9720F114
:1001C000809174009091750080936C008091720012
:1001D000909173006AE070E00E94E00160936D000E
:1001E00080917200909173006AE070E00E94E001DB
:1001F00080936E0080917000909171006AE070E0D1
:100200000E94E00160936F00089512BE89B782607A
:1002100089BF8FE18CBF8BB7806C8BBF85B78A603D
:1002200085BF8091780090917900892B11F47894A2
:100230000895F89480E29EE428EC30E0F9013197CB
:10024000F1F70197D9F7109279001092780008958C
:100250000E9405010E9449008A980E94B00081E036
:1002600090E00E945300F9CF1F920F920FB60F92A9
:1002700011242F938F939F93809176009091770014
:10028000019690937700809376008091760090910C
:100290007700885E934098F1109277001092760074
:1002A00080917000909171000196909371008093FD
:1002B00070008091700090917100CC9700F11092C5
:1002C00071001092700080917200909173000196FD
:1002D00090937300809372008091720090917300EC
:1002E000CC9768F0109273001092720080917400A5
:1002F000909175000196909375008093740081E051
:1003000090E090937900809378009F918F912F9146
:100310000F900FBE0F901F9018951F920F920FB65F
:100320000F9211248F939F9380916A0090916B009C
:10033000019741F483B78C6083BF10926B001092D9
:100340006A0009C081E090E090936B0080936A009E
:1003500083B78B7F83BF80B381E090E09093790077
:10036000809378009F918F910F900FBE0F901F90F8
:1003700018951F920F920FB60F9211248F939F938F
:1003800083B78B7F83BF1092770010927600109214
:10039000710010927000109273001092720010920F
:1003A00075001092740081E090E090937900809342
:1003B00078009F918F910F900FBE0F901F9018950E
:1003C000AA1BBB1B51E107C0AA1FBB1FA617B7077B
:1003D00010F0A61BB70B881F991F5A95A9F7809597
:0C03E0009095BC01CD010895F894FFCF6A
:0C03EC003F065B4F666D7D077F6F0100D0
:00000001FF
